:100000000C9434000C9451000C9451000C94510049
:100010000C9451000C9451000C9451000C9451001C
:100020000C9451000C9451000C9451000C94CA0B88
:100030000C9451000C9451000C9451000C945100FC
:100040000C9451000C9451000C943B0B0C945100F7
:100050000C9451000C9451000C9451000C945100DC
:100060000C9451000C94510011241FBECFEFD4E02A
:10007000DEBFCDBF11E0A0E0B1E0EAE3FBE102C0EA
:1000800005900D92A831B107D9F714E0A8E1B1E0CD
:1000900001C01D92A734B107E1F70E9453000C94F0
:1000A0009C0D0C9400000E94E50B0E9428010E9408
:1000B00015020E94FD00FFCFCF93DF93CDB7DEB7CF
:1000C00024970FB6F894DEBF0FBECDBFFE01319668
:1000D00024E0DC01BF77122E0E94970D69817A819E
:1000E0008B819C8124960FB6F894DEBF0FBECDBFE6
:1000F000DF91CF910895CF93DF93CDB7DEB72297ED
:100100000FB6F894DEBF0FBECDBFFE01319622E0E0
:10011000DC01BF77122E0E94970D89819A81229669
:100120000FB6F894DEBF0FBECDBFDF91CF9108951B
:10013000EF92FF920F931F938C0190E0E92E90E0D5
:10014000F92EC7010A960E947B00E80EF91E000FE7
:10015000111FC701800F911F0E947B008E0D9F1DF4
:100160001F910F91FF90EF900895EF92FF920F93E0
:100170001F938C0140E0E42E40E0F42EC7010C9662
:100180000E947B0033E0000F111F3A95E1F7080F42
:10019000191FC8018E0D9F1D1F910F91FF90EF90A9
:1001A0000895CF93DF93CDB7DEB721970FB6F894BC
:1001B000DEBF0FBECDBF21E0DC01BF77FE0131966F
:1001C000122E0E94970D8981992721960FB6F894D7
:1001D000DEBF0FBECDBFDF91CF9108958EE090E0DE
:1001E0000E94D100992708959927880F991F805F51
:1001F0009F4F0E94D10099270895EF92FF921F937D
:10020000CF93DF93EE24FF2410C0C12FDD27CE0152
:100210000E94B50004960E94D10080FF03C0CE0169
:100220000E9420020894E11CF11C1E2D85E090E044
:100230000E94D100E81648F386E090E00E947B001F
:100240000E942002DF91CF911F91FF90EF900895BF
:100250000F931F9380E090E00E945C009B01AC0133
:100260005E6B6373707080709E7B62177307840788
:10027000950711F08BE007C084E090E00E94D10068
:10028000823031F08CE00E94AE0880E090E013C034
:100290008AE090E00E947B008C0188E090E00E9460
:1002A0007B00081B190B169507951695079500936B
:1002B000220181E090E01F910F910895CF93DF9389
:1002C000DB01BF77EA01FC01219724F00E948F0D2A
:1002D0000192FACFDF91CF910895CF92DF92EF9202
:1002E000FF920F931F93CF93DF93CDB7DEB728977D
:1002F0000FB6F894DEBF0FBECDBFC82ED62EEE24AB
:10030000FF2420C0012F1127C8010E94B50048E03A
:1003100050E0BC01CE0101960E945E014B815C81E0
:10032000252F33278C2D99272817390741F4507032
:100330008D2D99274817590711F4C8010CC008944E
:10034000E11CF11C1E2D85E090E00E94D100E81612
:10035000C8F28FEF90E028960FB6F894DEBF0FBE7C
:10036000CDBFDF91CF911F910F91FF90EF90DF9064
:10037000CF9008950F931F93182F062F602F812F72
:100380000E946D018F3F51F4812F9927880F991F8B
:10039000815F9F4F0E94D100182FF0CF99271F91A6
:1003A0000F91089596FD906808951F93CF93DF9362
:1003B000EC01892F992780319105B0F40E94F40057
:1003C0009927880F991F0296BC0181E00E94EE07D1
:1003D000182F992790680E94520A812F0E94FD06CB
:1003E000FC01D183C08303C0CE010E94110DDF91B7
:1003F000CF911F910895CF93DF93EC0197FD03C038
:100400008DE00E94AE08CE018070907C80509048B4
:1004100021F48C2F0E94FD0605C0CE019F730E941F
:1004200098009068DF91CF9108950E94C1060E94C4
:10043000EE000E94100B80E090E00E94520A0895A6
:100440002F923F924F925F926F927F928F929F92E4
:10045000AF92BF92CF92DF92EF92FF920F931F93D2
:10046000CF93DF93CDB7DEB728970FB6F894DEBFF2
:100470000FBECDBF1C010E94B5002C0148E050E02A
:10048000BC01CE0101960E945E01A980BA80A40C35
:10049000B51C8F812885820F912D911D2E81820F91
:1004A000911D880F991F0E946E070E94870A02966D
:1004B00090932401809323018F810E94770A0E94E8
:1004C000320B88249924C5010E94D100C82EC50191
:1004D00001960E94D100782EC50102960E94D1009B
:1004E000682ECC2009F46EC380E1C81629F4872D4C
:1004F000992787FD90951AC391E1C91619F4C30194
:100500009F77EEC28C2D8250873020F48C2D992756
:10051000039753C1E6E3CE1691F4072D112707FD8B
:100520001095000F111F8091230190912401080F55
:10053000191F0E945F0AF80191838083F9C28C2DF4
:100540008B53843090F40C2D1127000F111F8091D4
:10055000230190912401080F191F065710400E9493
:100560005F0AF801918380833AC1F5E1CF1679F4EF
:10057000E72DFF27E7FDF095EE0FFF1F8091230188
:1005800090912401E80FF91F80819181CFC28C2DB9
:100590008A51843070F4EC2DFF27EE0FFF1F8091FD
:1005A000230190912401E80FF91FF4978081918134
:1005B00004C18C2D89598C3008F050C0863028F445
:1005C00086E0C80E00E010E003C00E94020B8C0120
:1005D0000E94020B4C0191EAC916F1F09C1538F00B
:1005E000EFE9CE1669F0F0EACF1681F50FC083EA85
:1005F000C816F1F0C816B0F094EAC91639F51EC055
:1006000080E090E08016910601F51DC080E090E04A
:1006100080169106D1F017C080E090E08016910618
:10062000A4F411C080E090E08016910674F00BC035
:1006300080E090E00815190544F405C080E090E0E2
:100640000815190514F081E090E04C018114910423
:1006500009F4BAC2A60CB71C80E0B7C2E7EACE160E
:1006600039F4A60CB71C8DEF9FEFA80EB91EBCC2C3
:100670008C2D8056853208F0A3C094E7C91649F442
:100680000E94020B88249924881A990AC4019F7732
:1006900093C2E4E8CE16D1F4E72DFF27E7FDF095ED
:1006A000EE0FFF1F8091230190912401E80FF91FA5
:1006B0002081318136FD3068862D992787FD909500
:1006C000280F391F3F77318320838EC20E94020B8F
:1006D0004C010E94020B8C01F8E7CF1609F44EC0C2
:1006E000FC15A8F088E6C81671F18C1540F090E66C
:1006F000C91619F1E4E6CE1609F05DC021C0FCE68A
:10070000CF1651F180E7C81609F055C031C09EE7F9
:10071000C91609F441C09C1540F0EAE7CE16A9F1CC
:10072000FCE7CF1609F047C040C080E8C816B9F111
:1007300092E8C91609F03FC035C0080D191D3BC02D
:100740000819190938C0F801E89D8001E99D100DCC
:10075000F89D100D11242FC08114910419F48FE01D
:100760000E94AE08C801B4010E947C0D8B0123C019
:10077000C801B4010E947C0D8C011DC0082C02C070
:10078000000F111F0A94E2F716C0082C02C015953D
:1007900007950A94E2F70FC0082119210CC0082917
:1007A000192909C00825192506C0082C02C016956C
:1007B00007950A94E2F7C8019F770E94520A0FC07A
:1007C000FCEACF1629F081EBC81609F041C003C03E
:1007D0000E945F0A4C010E94A20A882311F081E066
:1007E000F4C1DF8008850D0D0D5F8E81080F0E941A
:1007F0005F0A7C010E945F0A1C010E94B5002C0167
:1008000048E050E0BC01CE0101960E945E010E94CA
:100810005F0A5201A80EB91E8D2D81950E94770A9C
:100820000E94870AEE0CFF1C8E199F0990932401E9
:10083000809323011127C801880F991F0E94CA06BF
:100840009CEAC91609F0CFC1C4010E94520ACBC16B
:10085000E8E5CE1619F40E945F0A03C0F7E5CF164B
:1008600019F40E945F0AAEC189E5C81611F480E050
:1008700009C09CE5C91649F481E00E946B0A0E94F8
:10088000520A81E00E946B0A97C1EAEACE1609F08B
:100890003FC0C50107960E94D100082FC5010896E8
:1008A0000E94D1001127902E88249927882A992AFE
:1008B000C5010B960E94D100082FC5010C960E941D
:1008C000D100182F0E945F0A3C0188159905A4F0F9
:1008D000802F9927982F8827212F3327822B932B1E
:1008E000861597054CF0C30188199909880F991F3F
:1008F000880F991F0F9602C083E090E08501080FD2
:10090000191FC8010E94D100E82EC80101963BC002
:10091000FBEACF1609F042C0C50108960E94D1003B
:10092000D82E0E94020B4C0129E0E22EF12C850109
:10093000055F1F4F16C0C8010E94D100292D332723
:1009400027FD3A95821731F4C80101960E94D10023
:10095000881551F0DA9488E090E0E80EF91E085FFF
:100960001F4FDD2041F73BC114E0612E712C6E0C4E
:100970007F1C8501060D171DC80102960E94D1003B
:10098000E82EC80103960E94D100FF24FE2CEE241D
:100990009927E82AF92AAE0CBF1C8EC092EBC91623
:1009A00021F4C3010E948C0A9BC0E3EBCE1639F4FC
:1009B0000E945F0ABC01C3010E94970A15C1F2E1BF
:1009C000CF1651F4872D992787FD9095209122010C
:1009D000821B9109906CAAC08C2D865B833008F035
:1009E00071C08FE087150CF469C045018418950823
:1009F000C3010E94B5002C0148E050E0BC018E010B
:100A00000F5F1F4FC8010E945E0196EBC91601F5EA
:100A100080E00E946B0A0E94FD06FC018181282F64
:100A200033276B817C81872F99272817390781F01D
:100A3000822F0E94BA01682E992787FD90950E9407
:100A4000B5002C0148E050E0BC01C8010E945E01E5
:100A50008E8181950E94770A0E94870A2091230146
:100A6000309124018C01021B130B159507950E94F0
:100A7000870A029690932401809323018F81288511
:100A8000820F912D911D2E81820F911D880F991F2C
:100A900006960E946E078F810E94770AC4010E9409
:100AA000520AC1010E94520AC8010E94520A13014F
:100AB000A980BA80A40CB51C80E08AC0C3010E9442
:100AC0002C0D92C0F4EBCF1671F40E945F0A0E94C5
:100AD000FD06F301EE0FFF1FE80FF91F82819381DE
:100AE0000E94520A81C085EBC81679F40E945F0A01
:100AF0004C010E945F0A0E94FD06F301EE0FFF1FEA
:100B0000E80FF91F938282826FC09BEBC91621F414
:100B1000C3010E94D50168C0ECEBCE1659F40E94C7
:100B20005F0A672D0E948E08992790680E94520ADA
:100B300082E04EC0FEEBCF1629F40E945F0A0E94AD
:100B400075083AC084E5C81669F40E94020B8C014E
:100B50000E94020B4C010E945F0A402FB4010E94C8
:100B6000500830C09FE4C91669F40E94020B8C0142
:100B70000E94020B4C010E945F0AA801B4010E946E
:100B80002D0820C0E3E3CE1661F40E94020B4C0155
:100B90000E945F0AB4010E944108992787FD909541
:100BA0000BC0FEE2CF1659F40E94020B4C010E94CA
:100BB0005F0AB4010E941E080E94520A03C08EE020
:100BC0000E94AE0881E004C083E09CEAC91671F07F
:100BD000A80EB11CE1EBCE1609F075CC07C051E0B0
:100BE000652E712CC6CECC2483E0F2CF8F81819507
:100BF0000E94770A8F812885820F912D911D2E8169
:100C0000820F911D880F991F0E94CA0628960FB661
:100C1000F894DEBF0FBECDBFDF91CF911F910F9132
:100C2000FF90EF90DF90CF90BF90AF909F908F900C
:100C30007F906F905F904F903F902F90089585E246
:100C400091E00895FB01DC01A40FB51FE40FF51F2F
:100C500002C082918E93415050408FEF4F3F580712
:100C6000C1F70895482F20911801309119010CC047
:100C7000F901EB5DFE4F8081841761F081819281E3
:100C80009F770396280F391F83E02030380780F3C1
:100C9000E0E0F0E0CF0108951F9311E0812F0E9462
:100CA0003206892B19F4812F992704C01F5FB1F7F1
:100CB00080E090E01F9108950F931F93CF93DF93EF
:100CC000A82FBB27B068409118015091190127C087
:100CD000EA01CB5DDE4F29813A8137FF1BC0C90194
:100CE0009695879560E070E0082F11270FC06F5F21
:100CF0007F4FFF27EE0FFF1FEC0FFD1F83819481B5
:100D00008A179B0719F481E090E00FC0E62F601767
:100D1000710769F73F772D5F3F4F420F531F83E005
:100D200040305807A8F280E090E0DF91CF911F910A
:100D30000F910895782F9A012D5F3F4FA0911801D0
:100D4000B0911901FD01EB5DFE4F81819281821707
:100D5000930718F480E090E00895821B930B928330
:100D60008183FC01EA0FFB1FE85DFE4F7083662361
:100D700011F0506801C05F775283418381E090E0B9
:100D80000895109225018DEF92E0909327018093B2
:100D9000260108950F931F93CF93DF938C01C09189
:100DA0001801D0911901CB5DDE4F8881882319F09D
:100DB00081E00E94AE08809118019091190180177E
:100DC000910718F485E00E94AE0889819A81E0912C
:100DD0001801F0911901E01BF10BF0931901E09358
:100DE0001801EB5DFE4F1082800F911F928381836B
:100DF000DF91CF911F910F910895CF93DF930E94C0
:100E00003206EC01892B19F483E00E94AE08CE0172
:100E10000396DF91CF910895CF93DF930E9432061E
:100E2000EC01892B19F483E00E94AE0889819A8134
:100E30009F77DF91CF910895EF92FF920F931F93C9
:100E4000CF93DF93E0901801F090190133C0870130
:100E50000B5D1E4FF801C181D281DF77239680811F
:100E6000882331F10E94B30A882311F5F8018081AB
:100E70000E945C068823E1F46091180170911901C9
:100E8000A701461B570BCB018C0F9D1F6B5D7E4F3F
:100E90008B5D9E4F0E942206E0911801F09119018E
:100EA000EB5DFE4F818192818C0F9D1F9283818328
:100EB000EC0EFD1EF0E0EF16F3E0FF0640F280E0DE
:100EC000E81683E0F80619F081E00E94AE08DF9191
:100ED000CF911F910F91FF90EF900895EF92FF92A5
:100EE0000F931F93CF93DF937C01C0911801D09192
:100EF0001901CB5DDE4F8881882319F081E00E94C3
:100F0000AE0809811A810E151F0550F40E941C07B6
:100F100009811A810E151F0518F484E00E94AE089D
:100F2000E0911801F0911901EE0DFF1DF0931901E8
:100F3000E0931801EB5DFE4F10820E191F0912831A
:100F40000183DF91CF911F910F91FF90EF90089552
:100F5000FF920F931F93CF93DF93F82E8B01E091B5
:100F60001801F0911901EB5DFE4F9B012D5F3F4F82
:100F7000818192818217930710F40E941C078F2DA4
:100F80000E943206EC0160E089819A8197FD61E060
:100F9000A8018F2D0E949A06882319F482E00E94EE
:100FA000AE088F2D0E94320629813A813F77DE01FB
:100FB000AC0104C0FD018281FA01828321503040DE
:100FC00011964F5F5F4FFFEF2F3F3F0799F7188252
:100FD000DF91CF911F910F91FF9008950F931F9371
:100FE000CF93DF93082FEB010E944C06182F882324
:100FF00019F486E00E94AE08AE01602F812F0E9496
:101000009A068823A1F40E941C070E944C06182F00
:10101000882319F486E00E94AE08AE01602F812F6C
:101020000E949A06882319F482E00E94AE08812F5C
:101030009927DF91CF911F910F9108950F931F93DF
:101040008B010E94FD06000F111F080F191FF801E8
:10105000818192811F910F910895EF92FF920F93DA
:101060001F938B017A010E94FD06000F111F080FCC
:10107000191FF801F282E1821F910F91FF90EF900A
:1010800008950F931F938B010E94FD06080F191FEF
:10109000F8018181992787FD90951F910F910895FF
:1010A000FF920F931F938B01F42E0E94FD06080FF1
:1010B000191FF801F1821F910F91FF900895982F49
:1010C0008450823060F0983051F0993059F09A3065
:1010D00049F087E00E94AE0880E090E0089581E04A
:1010E00090E0089582E090E00895EF92FF921F93C0
:1010F000182F0E940C077C01812F0E94FD06FC0125
:1011000080810E945F08682F7727C70101970E949E
:10111000680DCB011F91FF90EF900895FF920F9300
:101120001F938C01F62E862F0E945F089927089F37
:10113000B001099F700D189F700D11246F5F7F4FD4
:1011400080E00E94EE07182F0E94FD06FC01F0824D
:10115000812F99271F910F91FF9008951F93182FAA
:1011600085E40E94700B82E50E94700B82E50E946C
:10117000700B8AE30E94700B812F8F5B0E94700BB3
:101180008AE00E94700BFFCFEF92FF920F931F93A4
:10119000CF93DF93FC019B0177FD06C000E117E2CE
:1011A00040E0EE24FF240CC08DE281933095219520
:1011B0003F4FF4CFC901B8010E947C0D9C018E0104
:1011C000C901B8010E947C0D6115710511F041E063
:1011D00005C0442319F40130110519F4862F805DF0
:1011E0008193C8016AE070E00E947C0DEB010894D5
:1011F000E11CF11C85E0E816F104E1F61082DF91B4
:10120000CF911F910F91FF90EF900895BF92CF92D1
:10121000DF92EF92FF920F931F93CF93DF93CDB79F
:10122000DEB725970FB6F894DEBF0FBECDBF982F5F
:10123000882329F40E94E60AFC01108292C08130C2
:10124000F9F480E00E94D80A0E94810B8C0181E0B1
:101250000E946B0A0F5F1F4FB8010E94A80780E031
:101260000E94D80A8C0181E00E946B0A0E94FD0650
:10127000B8010E94A40B0E945F0A0E945F0A71C01D
:101280008250833020F0963009F04BC02AC0923053
:10129000E9F480E00E94D80A0E94810B8C0181E071
:1012A0000E94D80A0E94810B0F5F1F4F080F191F61
:1012B000B80180E00E94EE07B82E81E00E94D80AB3
:1012C0006C0180E00E94D80A7C0116C0933049F47A
:1012D00080E00E94F40ABC01CE0101960E94C4087D
:1012E00005C080E00E946B0A89831A82FE01319654
:1012F00080818823E1F71BC08B2D0E94FD068C01A5
:10130000B6010E94A40BB701C8010E94C00B0E9445
:101310005F0A0E945F0A8B2D992790680E94520AEB
:1013200020C09530F1F088E00E94AE081AC07E011E
:101330000894E11CF11C8F010E191F0981E00E9425
:10134000D80A0E94810B0F5F1F4F080F191FB801A9
:1013500080E00E94EE07B82E81E00E94D80A6C015E
:10136000CBCF25960FB6F894DEBF0FBECDBFDF9171
:10137000CF911F910F91FF90EF90DF90CF90BF9092
:1013800008951F93182F0E945F0A113019F40E94CC
:101390005A0B04C0123031F40E94630B99270E944B
:1013A000520A03C088E00E94AE081F910895FF9280
:1013B0000F931F93CF93DF93EC01F62E97FF10C08E
:1013C00003C00E94700BE8018E010F5F1F4FCE011A
:1013D0000E94D1008823A9F706C021960E94700BB5
:1013E00088818823D1F7FF2019F08AE00E94700BD2
:1013F000DF91CF911F910F91FF9008950F931F934D
:10140000CF93DF93CDB7DEB728970FB6F894DEBF42
:101410000FBECDBF813021F40E94E60A61E00DC00D
:10142000823071F40E94020BBC018E010F5F1F4FCE
:10143000C8010E94C40861E0C8010E94D70925C004
:10144000843021F40E94E60A60E0F7CF853059F439
:101450000E94020BBC018E010F5F1F4FC8010E944A
:10146000C40860E0E9CF833031F40E94020B0E948F
:10147000700B8AE004C0863029F40E94020B0E949F
:10148000700B03C088E00E94AE080E945F0A289695
:101490000FB6F894DEBF0FBECDBFDF91CF911F9185
:1014A0000F910895E0911C01F0911D013296F09387
:1014B0001D01E0931C013297938382830895E0918C
:1014C0001C01F0911D01808191813297F0931D01E3
:1014D000E0931C0108959927880F991FE0911C0142
:1014E000F0911D01E81BF90B8081918108959927E6
:1014F00087FD9095880F991F20911C0130911D0147
:10150000280F391F30931D0120931C0108958091ED
:101510001C0190911D010895880F991FE0911A01F7
:10152000F0911B01E80FF91F808191810895880FC8
:10153000991FE0911A01F0911B01E80FF91F7183C7
:101540006083089540E050E020911C0130911D011E
:1015500080911E0190911F012817390711F441E075
:1015600050E0CA010895482F5527506880911A010C
:1015700090911B0120911C0130911D01281B390BFA
:10158000359527952F5F3F4FFC0160E070E00AC062
:10159000819191918417950719F481E090E0089565
:1015A0006F5F7F4F6217730799F780E090E00895AF
:1015B0009927880F991FE0911C01F0911D01E81BEC
:1015C000F90B808191810E94FB010895E0911C013B
:1015D000F0911D01808191813297F0931D01E0937C
:1015E0001C010E94FB0108959927880F991FE09123
:1015F0001C01F0911D01E81BF90B808191810E9473
:10160000D2010895E0911C01F0911D01808191812A
:101610003297F0931D01E0931C010E94D2010895BE
:101620000F931F93082F0E941F0690931B01809316
:101630001A01029790931D0180931C011127000F3E
:10164000111FC80102960E946E0780911C019091A3
:101650001D01800F911F90931D0180931C011F910C
:101660000F91089580911C0190911D0190931F018D
:1016700080931E0108951F920F920FB60F921124AE
:101680008F939F93EF93FF93809125049091C600D1
:10169000E6E2F4E0E80FF11D90838F5F8F71809395
:1016A0002504FF91EF919F918F910F900FBE0F90A6
:1016B0001F9018958091250420914604821B99273C
:1016C0008F719070089590914604E6E2F4E0E90F7E
:1016D000F11D80819F5F9F71909346049927089523
:1016E000982F8A3039F48091C00085FFFCCF8DE0BF
:1016F0008093C6008091C00085FFFCCF9093C60008
:1017000008950F931F93CF93DF93FC0197FD03C0C0
:1017100000E010E010C000E010E003C00F5F1F4FBA
:10172000FE01EF012196CF010E94D1008823B1F77D
:1017300005C00F5F1F4F81918823D9F7C801DF9142
:10174000CF911F910F9108950F931F93CF93DF9324
:10175000EC01FB0177FF0BC08F010F5F1F4FCF0123
:101760000E94D1008993882331F0F801F5CF81914F
:1017700089938823E1F7DF91CF911F910F9108950D
:10178000FC0101C0319680818823E1F7CF010E94DE
:10179000A40B08951F920F920FB60F9211248F93EE
:1017A0009F93109285001092840080912001909167
:1017B0002101019690932101809320019F918F91A7
:1017C0000F900FBE0F901F90189582E080938100BC
:1017D00080E197E29093890080938800EFE6F0E043
:1017E0008081826080830895CF93DF93813081F47C
:1017F0000E945F0AEC010E945F0A813011F580911E
:10180000B100887F9E012770822B8093B10019C0A0
:101810008230A1F40E945F0AEC010E945F0A8130CD
:1018200081F483E08093B0008091B100877080687C
:101830008093B100239AC093B30003C088E00E9454
:10184000AE08DF91CF9108950F931F93813061F41B
:101850000E945F0A8C010E945F0AE82FFF27EE0FAB
:10186000FF1FE85FFE4F36C08230C9F40E945F0A56
:101870008C010E945F0AE82FFF27EE0FFF1FE85F31
:10188000FE4F0190F081E02D208181E090E002C0C8
:10189000880F991F0A95E2F7282B20832CC08330EC
:1018A00061F40E945F0A8C010E945F0AE82FFF2703
:1018B000EE0FFF1FE050FF4FE4CF8430C9F40E94C9
:1018C0005F0A8C010E945F0AE82FFF27EE0FFF1FBF
:1018D000E050FF4F0190F081E02D208181E090E009
:1018E00002C0880F991F0A95E2F780952823D5CF6B
:1018F00088E00E94AE081F910F9108951F938130D8
:1019000039F40E94020B8770806880937A004EC081
:10191000823031F40E94020B807C80937C0046C0B0
:10192000833009F510917C000E94020B107C8F70AF
:10193000182B10937C0080917A00806480937A0049
:1019400080917A0084FFFCCF80917A00806180933F
:101950007A0020917800809179009927982F882724
:10196000820F911D1DC08430F1F410917C000E9403
:10197000020B8F70107C1062812B80937C00809111
:101980007A00806480937A0080917A0084FFFCCF93
:1019900080917A00806180937A0080917900992704
:1019A0000E94520A03C088E00E94AE081F91089569
:1019B000813039F40E94020B909389008093880053
:1019C0000895823039F480912001909121010E9484
:1019D000520A0895833079F40E94020B9C01109200
:1019E0002101109220018091200190912101821704
:1019F00093075CF4F8CF843029F40E94020B8093A3
:101A00008100089588E00E94AE080895813029F48D
:101A100080E49FE10E94520A089588E00E94AE0887
:101A20000895892F9927449751F461E070E080E090
:101A30000E94EE07992790680E94520A089589E053
:101A40000E94AE080895882319F40E945F0A089541
:101A500088E00E94AE080895292F332720313105F0
:101A600019F40E94230D08952231310519F40E94C2
:101A7000FE0908952331310519F40E94C109089522
:101A80002431310519F40E940609089525313105E4
:101A900019F40E94060D08952631310519F40E94AB
:101AA000240C08952731310519F40E94D80C0895AB
:101AB0002A31310519F40E947E0C0895293131052F
:101AC00019F40E94F40B089589E00E94AE0808956D
:101AD000AA1BBB1B51E107C0AA1FBB1FA617B70754
:101AE00010F0A61BB70B881F991F5A95A9F7809570
:101AF0009095BC01CD01089597FB092E07260AD0C9
:101B000077FD04D0E5DF06D000201AF470956195CA
:101B10007F4F0895F6F7909581959F4F0895F99915
:101B2000FECFB2BDA1BDF89A119600B40895F7DFBB
:0A1B300001921A94E1F70895FFCF27
:101B3A000000250028002B000000240027002A00AE
:081B4A00000023002600290021
:00000001FF
